{
  "_format": "hh-sol-artifact-1",
  "contractName": "IDOPool",
  "sourceName": "contracts/IDOPool.sol",
  "abi": [
    {
      "inputs": [
        {
          "internalType": "address",
          "name": "_paymentToken",
          "type": "address"
        },
        {
          "internalType": "address",
          "name": "_offeringToken",
          "type": "address"
        },
        {
          "internalType": "uint256",
          "name": "_tokenPrice",
          "type": "uint256"
        },
        {
          "internalType": "uint256",
          "name": "_softCap",
          "type": "uint256"
        },
        {
          "internalType": "uint256",
          "name": "_hardCap",
          "type": "uint256"
        },
        {
          "internalType": "uint256",
          "name": "_minContribution",
          "type": "uint256"
        },
        {
          "internalType": "uint256",
          "name": "_maxContribution",
          "type": "uint256"
        }
      ],
      "stateMutability": "nonpayable",
      "type": "constructor"
    },
    {
      "anonymous": false,
      "inputs": [],
      "name": "AdminRefundEnabled",
      "type": "event"
    },
    {
      "anonymous": false,
      "inputs": [
        {
          "indexed": true,
          "internalType": "address",
          "name": "previousOwner",
          "type": "address"
        },
        {
          "indexed": true,
          "internalType": "address",
          "name": "newOwner",
          "type": "address"
        }
      ],
      "name": "OwnershipTransferred",
      "type": "event"
    },
    {
      "anonymous": false,
      "inputs": [],
      "name": "ParametersUpdated",
      "type": "event"
    },
    {
      "anonymous": false,
      "inputs": [
        {
          "indexed": false,
          "internalType": "enum IDOPool.PoolState",
          "name": "state",
          "type": "uint8"
        }
      ],
      "name": "PoolStateChanged",
      "type": "event"
    },
    {
      "anonymous": false,
      "inputs": [
        {
          "indexed": true,
          "internalType": "address",
          "name": "user",
          "type": "address"
        },
        {
          "indexed": false,
          "internalType": "uint256",
          "name": "amount",
          "type": "uint256"
        }
      ],
      "name": "RefundClaimed",
      "type": "event"
    },
    {
      "anonymous": false,
      "inputs": [
        {
          "indexed": true,
          "internalType": "address",
          "name": "user",
          "type": "address"
        },
        {
          "indexed": false,
          "internalType": "uint256",
          "name": "amount",
          "type": "uint256"
        }
      ],
      "name": "TokensClaimed",
      "type": "event"
    },
    {
      "anonymous": false,
      "inputs": [
        {
          "indexed": false,
          "internalType": "uint256",
          "name": "amount",
          "type": "uint256"
        }
      ],
      "name": "TokensDeposited",
      "type": "event"
    },
    {
      "anonymous": false,
      "inputs": [
        {
          "indexed": true,
          "internalType": "address",
          "name": "buyer",
          "type": "address"
        },
        {
          "indexed": false,
          "internalType": "uint256",
          "name": "paymentAmount",
          "type": "uint256"
        },
        {
          "indexed": false,
          "internalType": "uint256",
          "name": "tokenAmount",
          "type": "uint256"
        }
      ],
      "name": "TokensPurchased",
      "type": "event"
    },
    {
      "inputs": [],
      "name": "admin",
      "outputs": [
        {
          "internalType": "address",
          "name": "",
          "type": "address"
        }
      ],
      "stateMutability": "view",
      "type": "function"
    },
    {
      "inputs": [
        {
          "internalType": "uint256",
          "name": "_amount",
          "type": "uint256"
        }
      ],
      "name": "buyTokens",
      "outputs": [],
      "stateMutability": "nonpayable",
      "type": "function"
    },
    {
      "inputs": [],
      "name": "claimRefund",
      "outputs": [],
      "stateMutability": "nonpayable",
      "type": "function"
    },
    {
      "inputs": [],
      "name": "claimTokens",
      "outputs": [],
      "stateMutability": "nonpayable",
      "type": "function"
    },
    {
      "inputs": [
        {
          "internalType": "address",
          "name": "",
          "type": "address"
        }
      ],
      "name": "contributions",
      "outputs": [
        {
          "internalType": "uint256",
          "name": "",
          "type": "uint256"
        }
      ],
      "stateMutability": "view",
      "type": "function"
    },
    {
      "inputs": [
        {
          "internalType": "uint256",
          "name": "_amount",
          "type": "uint256"
        }
      ],
      "name": "depositOfferingTokens",
      "outputs": [],
      "stateMutability": "nonpayable",
      "type": "function"
    },
    {
      "inputs": [],
      "name": "enableRefund",
      "outputs": [],
      "stateMutability": "nonpayable",
      "type": "function"
    },
    {
      "inputs": [],
      "name": "endTime",
      "outputs": [
        {
          "internalType": "uint256",
          "name": "",
          "type": "uint256"
        }
      ],
      "stateMutability": "view",
      "type": "function"
    },
    {
      "inputs": [],
      "name": "finalize",
      "outputs": [],
      "stateMutability": "nonpayable",
      "type": "function"
    },
    {
      "inputs": [
        {
          "internalType": "address",
          "name": "_user",
          "type": "address"
        }
      ],
      "name": "getUserTokenAmount",
      "outputs": [
        {
          "internalType": "uint256",
          "name": "",
          "type": "uint256"
        }
      ],
      "stateMutability": "view",
      "type": "function"
    },
    {
      "inputs": [],
      "name": "hardCap",
      "outputs": [
        {
          "internalType": "uint256",
          "name": "",
          "type": "uint256"
        }
      ],
      "stateMutability": "view",
      "type": "function"
    },
    {
      "inputs": [
        {
          "internalType": "address",
          "name": "",
          "type": "address"
        }
      ],
      "name": "hasClaimedRefund",
      "outputs": [
        {
          "internalType": "bool",
          "name": "",
          "type": "bool"
        }
      ],
      "stateMutability": "view",
      "type": "function"
    },
    {
      "inputs": [
        {
          "internalType": "address",
          "name": "",
          "type": "address"
        }
      ],
      "name": "hasClaimedTokens",
      "outputs": [
        {
          "internalType": "bool",
          "name": "",
          "type": "bool"
        }
      ],
      "stateMutability": "view",
      "type": "function"
    },
    {
      "inputs": [],
      "name": "isHardCapReached",
      "outputs": [
        {
          "internalType": "bool",
          "name": "",
          "type": "bool"
        }
      ],
      "stateMutability": "view",
      "type": "function"
    },
    {
      "inputs": [],
      "name": "isSoftCapReached",
      "outputs": [
        {
          "internalType": "bool",
          "name": "",
          "type": "bool"
        }
      ],
      "stateMutability": "view",
      "type": "function"
    },
    {
      "inputs": [],
      "name": "maxContribution",
      "outputs": [
        {
          "internalType": "uint256",
          "name": "",
          "type": "uint256"
        }
      ],
      "stateMutability": "view",
      "type": "function"
    },
    {
      "inputs": [],
      "name": "minContribution",
      "outputs": [
        {
          "internalType": "uint256",
          "name": "",
          "type": "uint256"
        }
      ],
      "stateMutability": "view",
      "type": "function"
    },
    {
      "inputs": [],
      "name": "offeringToken",
      "outputs": [
        {
          "internalType": "contract MockERC20",
          "name": "",
          "type": "address"
        }
      ],
      "stateMutability": "view",
      "type": "function"
    },
    {
      "inputs": [],
      "name": "owner",
      "outputs": [
        {
          "internalType": "address",
          "name": "",
          "type": "address"
        }
      ],
      "stateMutability": "view",
      "type": "function"
    },
    {
      "inputs": [],
      "name": "paymentToken",
      "outputs": [
        {
          "internalType": "contract MockERC20",
          "name": "",
          "type": "address"
        }
      ],
      "stateMutability": "view",
      "type": "function"
    },
    {
      "inputs": [],
      "name": "poolState",
      "outputs": [
        {
          "internalType": "enum IDOPool.PoolState",
          "name": "",
          "type": "uint8"
        }
      ],
      "stateMutability": "view",
      "type": "function"
    },
    {
      "inputs": [],
      "name": "refundEndTime",
      "outputs": [
        {
          "internalType": "uint256",
          "name": "",
          "type": "uint256"
        }
      ],
      "stateMutability": "view",
      "type": "function"
    },
    {
      "inputs": [],
      "name": "renounceOwnership",
      "outputs": [],
      "stateMutability": "nonpayable",
      "type": "function"
    },
    {
      "inputs": [],
      "name": "softCap",
      "outputs": [
        {
          "internalType": "uint256",
          "name": "",
          "type": "uint256"
        }
      ],
      "stateMutability": "view",
      "type": "function"
    },
    {
      "inputs": [
        {
          "internalType": "uint256",
          "name": "_startTime",
          "type": "uint256"
        },
        {
          "internalType": "uint256",
          "name": "_endTime",
          "type": "uint256"
        },
        {
          "internalType": "uint256",
          "name": "_refundEndTime",
          "type": "uint256"
        }
      ],
      "name": "startPool",
      "outputs": [],
      "stateMutability": "nonpayable",
      "type": "function"
    },
    {
      "inputs": [],
      "name": "startTime",
      "outputs": [
        {
          "internalType": "uint256",
          "name": "",
          "type": "uint256"
        }
      ],
      "stateMutability": "view",
      "type": "function"
    },
    {
      "inputs": [],
      "name": "tokenPrice",
      "outputs": [
        {
          "internalType": "uint256",
          "name": "",
          "type": "uint256"
        }
      ],
      "stateMutability": "view",
      "type": "function"
    },
    {
      "inputs": [],
      "name": "tokensDeposited",
      "outputs": [
        {
          "internalType": "bool",
          "name": "",
          "type": "bool"
        }
      ],
      "stateMutability": "view",
      "type": "function"
    },
    {
      "inputs": [],
      "name": "totalDistributed",
      "outputs": [
        {
          "internalType": "uint256",
          "name": "",
          "type": "uint256"
        }
      ],
      "stateMutability": "view",
      "type": "function"
    },
    {
      "inputs": [],
      "name": "totalRaised",
      "outputs": [
        {
          "internalType": "uint256",
          "name": "",
          "type": "uint256"
        }
      ],
      "stateMutability": "view",
      "type": "function"
    },
    {
      "inputs": [
        {
          "internalType": "address",
          "name": "newOwner",
          "type": "address"
        }
      ],
      "name": "transferOwnership",
      "outputs": [],
      "stateMutability": "nonpayable",
      "type": "function"
    },
    {
      "inputs": [
        {
          "internalType": "uint256",
          "name": "_tokenPrice",
          "type": "uint256"
        },
        {
          "internalType": "uint256",
          "name": "_softCap",
          "type": "uint256"
        },
        {
          "internalType": "uint256",
          "name": "_hardCap",
          "type": "uint256"
        },
        {
          "internalType": "uint256",
          "name": "_minContribution",
          "type": "uint256"
        },
        {
          "internalType": "uint256",
          "name": "_maxContribution",
          "type": "uint256"
        }
      ],
      "name": "updateParameters",
      "outputs": [],
      "stateMutability": "nonpayable",
      "type": "function"
    },
    {
      "inputs": [],
      "name": "withdrawRaisedFunds",
      "outputs": [],
      "stateMutability": "nonpayable",
      "type": "function"
    },
    {
      "inputs": [],
      "name": "withdrawUnsoldTokens",
      "outputs": [],
      "stateMutability": "nonpayable",
      "type": "function"
    }
  ],
  "bytecode": "0x60806040523480156200001157600080fd5b50604051620024d6380380620024d68339810160408190526200003491620005fa565b6200003f336200058d565b600180556001600160a01b038716620000ab5760405162461bcd60e51b8152602060048201526024808201527f5061796d656e7420746f6b656e2063616e6e6f74206265207a65726f206164646044820152637265737360e01b60648201526084015b60405180910390fd5b6001600160a01b038616620001115760405162461bcd60e51b815260206004820152602560248201527f4f66666572696e6720746f6b656e2063616e6e6f74206265207a65726f206164604482015264647265737360d81b6064820152608401620000a2565b60008511620001715760405162461bcd60e51b815260206004820152602560248201527f546f6b656e207072696365206d7573742062652067726561746572207468616e604482015264207a65726f60d81b6064820152608401620000a2565b60008411620001ce5760405162461bcd60e51b815260206004820152602260248201527f536f667420636170206d7573742062652067726561746572207468616e207a65604482015261726f60f01b6064820152608401620000a2565b83831015620002205760405162461bcd60e51b815260206004820152601c60248201527f4861726420636170206d757374206265203e3d20736f667420636170000000006044820152606401620000a2565b60008211620002855760405162461bcd60e51b815260206004820152602a60248201527f4d696e20636f6e747269627574696f6e206d7573742062652067726561746572604482015269207468616e207a65726f60b01b6064820152608401620000a2565b81811015620002ec5760405162461bcd60e51b815260206004820152602c60248201527f4d617820636f6e747269627574696f6e206d757374206265203e3d206d696e2060448201526b31b7b73a3934b13aba34b7b760a11b6064820152608401620000a2565b6001600160a01b0387163b620003455760405162461bcd60e51b815260206004820152601f60248201527f5061796d656e7420746f6b656e206973206e6f74206120636f6e7472616374006044820152606401620000a2565b6001600160a01b0386163b6200039e5760405162461bcd60e51b815260206004820181905260248201527f4f66666572696e6720746f6b656e206973206e6f74206120636f6e74726163746044820152606401620000a2565b866001600160a01b03166318160ddd6040518163ffffffff1660e01b8152600401602060405180830381865afa925050508015620003fb575060408051601f3d908101601f19168201909252620003f89181019062000661565b60015b620004625760405162461bcd60e51b815260206004820152603060248201527f5061796d656e7420746f6b656e20646f6573206e6f7420696d706c656d656e7460448201526f20455243323020696e7465726661636560801b6064820152608401620000a2565b50856001600160a01b03166318160ddd6040518163ffffffff1660e01b8152600401602060405180830381865afa925050508015620004c0575060408051601f3d908101601f19168201909252620004bd9181019062000661565b60015b620005285760405162461bcd60e51b815260206004820152603160248201527f4f66666572696e6720746f6b656e20646f6573206e6f7420696d706c656d656e6044820152707420455243323020696e7465726661636560781b6064820152608401620000a2565b50600280546001600160a01b039889166001600160a01b0319918216179091556003805497909816968116969096179096556004939093556005919091556006556007556008919091556012805490911633179055600c805460ff191690556200067b565b600080546001600160a01b038381166001600160a01b0319831681178455604051919092169283917f8be0079c531659141344cd1fd0a4f28419497f9722a3daafe3b4186f6b6457e09190a35050565b80516001600160a01b0381168114620005f557600080fd5b919050565b600080600080600080600060e0888a0312156200061657600080fd5b6200062188620005dd565b96506200063160208901620005dd565b604089015160608a015160808b015160a08c015160c0909c01519a9d939c50919a90999198509650945092505050565b6000602082840312156200067457600080fd5b5051919050565b611e4b806200068b6000396000f3fe608060405234801561001057600080fd5b50600436106102065760003560e01c806389e423461161011a578063b8592e67116100ad578063ed613ac11161007c578063ed613ac1146103e9578063efca2eed1461040c578063f2fde38b14610415578063f851a44014610428578063fb86a4041461043b57600080fd5b8063b8592e67146103b2578063c5c4744c146103c5578063c8bdbfb6146103ce578063e6c26672146103d657600080fd5b8063aaffadf3116100e9578063aaffadf31461037b578063b5545a3c14610384578063b7622dd41461038c578063b78136071461039f57600080fd5b806389e42346146103505780638d3d6576146103585780638da5cb5b14610361578063906a26e01461037257600080fd5b8063641ad8a91161019d57806373fddd161161016c57806373fddd161461031557806378e979251461031e5780637ff9b5961461032757806380d32f8514610330578063884ec6ee1461033d57600080fd5b8063641ad8a9146102c3578063688d3922146102dd57806368a94dfc146102ea578063715018a61461030d57600080fd5b806342e94c90116101d957806342e94c901461028b57806348c54b9d146102ab5780634bb278f3146102b35780635413713a146102bb57600080fd5b806322ae82801461020b5780633013ce29146102345780633197cbb61461025f5780633610724e14610276575b600080fd5b60125461021f90600160a01b900460ff1681565b60405190151581526020015b60405180910390f35b600254610247906001600160a01b031681565b6040516001600160a01b03909116815260200161022b565b610268600a5481565b60405190815260200161022b565b610289610284366004611c17565b610444565b005b610268610299366004611c30565b600f6020526000908152604090205481565b6102896106f3565b6102896108c7565b6102896109ea565b600c546102d09060ff1681565b60405161022b9190611c76565b600654600d54101561021f565b61021f6102f8366004611c30565b60116020526000908152604090205460ff1681565b610289610b6a565b610268600b5481565b61026860095481565b61026860045481565b600554600d54101561021f565b61028961034b366004611c9e565b610b7c565b610289610db3565b61026860085481565b6000546001600160a01b0316610247565b61026860055481565b61026860075481565b610289610ecf565b61028961039a366004611cca565b611114565b600354610247906001600160a01b031681565b6102686103c0366004611c30565b6113b3565b610268600d5481565b610289611418565b6102896103e4366004611c17565b6115fd565b61021f6103f7366004611c30565b60106020526000908152604090205460ff1681565b610268600e5481565b610289610423366004611c30565b611793565b601254610247906001600160a01b031681565b61026860065481565b61044c611809565b6001600c5460ff16600481111561046557610465611c60565b146104ac5760405162461bcd60e51b8152602060048201526012602482015271506f6f6c206973206e6f742061637469766560701b60448201526064015b60405180910390fd5b6009544210156104fe5760405162461bcd60e51b815260206004820152601760248201527f49444f20686173206e6f7420737461727465642079657400000000000000000060448201526064016104a3565b600a544211156105405760405162461bcd60e51b815260206004820152600d60248201526c125113c81a185cc8195b991959609a1b60448201526064016104a3565b6007548110156105925760405162461bcd60e51b815260206004820152601a60248201527f436f6e747269627574696f6e2062656c6f77206d696e696d756d00000000000060448201526064016104a3565b336000908152600f60205260408120546105ad908390611d1b565b90506008548111156106015760405162461bcd60e51b815260206004820152601c60248201527f45786365656473206d6178696d756d20636f6e747269627574696f6e0000000060448201526064016104a3565b600082600d546106119190611d1b565b90506006548111156106585760405162461bcd60e51b815260206004820152601060248201526f12185c990818d85c081c995858da195960821b60448201526064016104a3565b336000908152600f60205260408120839055600d82905560045461068485670de0b6b3a7640000611d2e565b61068e9190611d45565b6002549091506106a9906001600160a01b0316333087611862565b604080518581526020810183905233917f8fafebcaf9d154343dad25669bfa277f4fbacd7ac6b0c4fed522580e040a0f33910160405180910390a25050506106f060018055565b50565b6106fb611809565b6002600c5460ff16600481111561071457610714611c60565b146107595760405162461bcd60e51b8152602060048201526015602482015274141bdbdb081a5cc81b9bdd0818dbdb5c1b195d1959605a1b60448201526064016104a3565b336000908152600f60205260409020546107ad5760405162461bcd60e51b8152602060048201526015602482015274139bc818dbdb9d1c9a589d5d1a5bdb88199bdd5b99605a1b60448201526064016104a3565b3360009081526010602052604090205460ff16156108065760405162461bcd60e51b8152602060048201526016602482015275151bdad95b9cc8185b1c9958591e4818db185a5b595960521b60448201526064016104a3565b336000908152600f602052604081205460045490919061082e83670de0b6b3a7640000611d2e565b6108389190611d45565b336000908152601060205260408120805460ff19166001179055600e80549293508392909190610869908490611d1b565b9091555050600354610885906001600160a01b031633836118d3565b60405181815233907f896e034966eaaf1adc54acc0f257056febbd300c9e47182cf761982cf1f5e4309060200160405180910390a250506108c560018055565b565b6108cf611908565b6001600c5460ff1660048111156108e8576108e8611c60565b1461092a5760405162461bcd60e51b8152602060048201526012602482015271506f6f6c206973206e6f742061637469766560701b60448201526064016104a3565b600a5442118061093e5750600654600d5410155b61097e5760405162461bcd60e51b8152602060048201526011602482015270125113c81b9bdd081e595d08195b991959607a1b60448201526064016104a3565b600554600d541061099b57600c805460ff191660021790556109a9565b600c805460ff191660041790555b600c546040517f24b0afb747a8213aea796b9518bfa667de187b83390eda7cc93b8e57f80fcd1a916109e09160ff90911690611c76565b60405180910390a1565b6109f2611908565b6002600c5460ff166004811115610a0b57610a0b611c60565b14610a4c5760405162461bcd60e51b8152602060048201526011602482015270125113c81b9bdd0818dbdb5c1b195d1959607a1b60448201526064016104a3565b600b544211610a9d5760405162461bcd60e51b815260206004820152601d60248201527f5761697420756e74696c20726566756e6420706572696f6420656e647300000060448201526064016104a3565b6002546040516370a0823160e01b81523060048201526000916001600160a01b0316906370a0823190602401602060405180830381865afa158015610ae6573d6000803e3d6000fd5b505050506040513d601f19601f82011682018060405250810190610b0a9190611d67565b905060008111610b535760405162461bcd60e51b81526020600482015260146024820152734e6f2066756e647320746f20776974686472617760601b60448201526064016104a3565b6002546106f0906001600160a01b031633836118d3565b610b72611908565b6108c56000611962565b610b84611908565b6000600c5460ff166004811115610b9d57610b9d611c60565b14610bea5760405162461bcd60e51b815260206004820152601d60248201527f506f6f6c206d75737420626520696e2070656e64696e6720737461746500000060448201526064016104a3565b601254600160a01b900460ff16610c535760405162461bcd60e51b815260206004820152602760248201527f4f66666572696e6720746f6b656e73206d757374206265206465706f736974656044820152661908199a5c9cdd60ca1b60648201526084016104a3565b428311610ca25760405162461bcd60e51b815260206004820181905260248201527f53746172742074696d65206d75737420626520696e207468652066757475726560448201526064016104a3565b828211610cfb5760405162461bcd60e51b815260206004820152602160248201527f456e642074696d65206d7573742062652061667465722073746172742074696d6044820152606560f81b60648201526084016104a3565b818111610d595760405162461bcd60e51b815260206004820152602660248201527f526566756e6420656e642074696d65206d75737420626520616674657220656e604482015265642074696d6560d01b60648201526084016104a3565b6009839055600a829055600b819055600c805460ff191660019081179091556040517f24b0afb747a8213aea796b9518bfa667de187b83390eda7cc93b8e57f80fcd1a91610da691611c76565b60405180910390a1505050565b610dbb611908565b6001600c5460ff166004811115610dd457610dd4611c60565b1480610df657506002600c5460ff166004811115610df457610df4611c60565b145b610e5e5760405162461bcd60e51b815260206004820152603360248201527f43616e206f6e6c7920656e61626c6520726566756e6420696e20616374697665604482015272206f7220636f6d706c6574656420737461746560681b60648201526084016104a3565b600c805460ff191660049081179091556040517f24b0afb747a8213aea796b9518bfa667de187b83390eda7cc93b8e57f80fcd1a91610e9c91611c76565b60405180910390a16040517fbf237bc26541401cd766305a4121fb7aeef3572d240425d8d16a39878ffabaff90600090a1565b610ed7611809565b6004600c5460ff166004811115610ef057610ef0611c60565b14610f355760405162461bcd60e51b8152602060048201526015602482015274526566756e6473206e6f7420617661696c61626c6560581b60448201526064016104a3565b600b54421115610f7d5760405162461bcd60e51b81526020600482015260136024820152721499599d5b99081c195c9a5bd908195b991959606a1b60448201526064016104a3565b336000908152600f6020526040902054610fd15760405162461bcd60e51b8152602060048201526015602482015274139bc818dbdb9d1c9a589d5d1a5bdb88199bdd5b99605a1b60448201526064016104a3565b3360009081526011602052604090205460ff161561102a5760405162461bcd60e51b81526020600482015260166024820152751499599d5b9908185b1c9958591e4818db185a5b595960521b60448201526064016104a3565b3360009081526010602052604090205460ff16156110965760405162461bcd60e51b815260206004820152602360248201527f43616e6e6f7420726566756e6420616674657220636c61696d696e6720746f6b604482015262656e7360e81b60648201526084016104a3565b336000818152600f60209081526040808320546011909252909120805460ff1916600117905560025490916110d5916001600160a01b031690836118d3565b60405181815233907f358fe4192934d3bf28ae181feda1f4bd08ca67f5e2fad55582cce5eb67304ae99060200160405180910390a2506108c560018055565b61111c611908565b6000600c5460ff16600481111561113557611135611c60565b146111995760405162461bcd60e51b815260206004820152602e60248201527f43616e6e6f742075706461746520706172616d6574657273206166746572204960448201526d1113c81a185cc81cdd185c9d195960921b60648201526084016104a3565b600085116111f75760405162461bcd60e51b815260206004820152602560248201527f546f6b656e207072696365206d7573742062652067726561746572207468616e604482015264207a65726f60d81b60648201526084016104a3565b600084116112525760405162461bcd60e51b815260206004820152602260248201527f536f667420636170206d7573742062652067726561746572207468616e207a65604482015261726f60f01b60648201526084016104a3565b838310156112a25760405162461bcd60e51b815260206004820152601c60248201527f4861726420636170206d757374206265203e3d20736f6674206361700000000060448201526064016104a3565b600082116113055760405162461bcd60e51b815260206004820152602a60248201527f4d696e20636f6e747269627574696f6e206d7573742062652067726561746572604482015269207468616e207a65726f60b01b60648201526084016104a3565b8181101561136a5760405162461bcd60e51b815260206004820152602c60248201527f4d617820636f6e747269627574696f6e206d757374206265203e3d206d696e2060448201526b31b7b73a3934b13aba34b7b760a11b60648201526084016104a3565b600485905560058490556006839055600782905560088190556040517f1e75f48d565290d5600a063ae01f58a35d4cd270ef71d444bbeb914224ca5d7790600090a15050505050565b6001600160a01b0381166000908152600f602052604081205481036113da57506000919050565b6004546001600160a01b0383166000908152600f602052604090205461140890670de0b6b3a7640000611d2e565b6114129190611d45565b92915050565b611420611908565b6002600c5460ff16600481111561143957611439611c60565b148061145b57506003600c5460ff16600481111561145957611459611c60565b145b8061147c57506004600c5460ff16600481111561147a5761147a611c60565b145b6114de5760405162461bcd60e51b815260206004820152602d60248201527f49444f206d75737420626520636f6d706c657465642c2063616e63656c6c656460448201526c206f7220726566756e64696e6760981b60648201526084016104a3565b600b54421161152f5760405162461bcd60e51b815260206004820152601d60248201527f5761697420756e74696c20726566756e6420706572696f6420656e647300000060448201526064016104a3565b6003546040516370a0823160e01b81523060048201526000916001600160a01b0316906370a0823190602401602060405180830381865afa158015611578573d6000803e3d6000fd5b505050506040513d601f19601f8201168201806040525081019061159c9190611d67565b9050600081116115e65760405162461bcd60e51b81526020600482015260156024820152744e6f20746f6b656e7320746f20776974686472617760581b60448201526064016104a3565b6003546106f0906001600160a01b031633836118d3565b611605611908565b6000600c5460ff16600481111561161e5761161e611c60565b146116765760405162461bcd60e51b815260206004820152602260248201527f43616e206f6e6c79206465706f736974206265666f72652049444f2073746172604482015261747360f01b60648201526084016104a3565b600081116116c65760405162461bcd60e51b815260206004820181905260248201527f416d6f756e74206d7573742062652067726561746572207468616e207a65726f60448201526064016104a3565b60006004546006546116d89190611d45565b90508082101561172a5760405162461bcd60e51b815260206004820181905260248201527f496e73756666696369656e7420746f6b656e7320666f7220686172642063617060448201526064016104a3565b600354611742906001600160a01b0316333085611862565b6012805460ff60a01b1916600160a01b1790556040517f77acf75e237f9aae98f997395832d522bdb695e4a9bd07704936aa889a3667d1906117879084815260200190565b60405180910390a15050565b61179b611908565b6001600160a01b0381166118005760405162461bcd60e51b815260206004820152602660248201527f4f776e61626c653a206e6577206f776e657220697320746865207a65726f206160448201526564647265737360d01b60648201526084016104a3565b6106f081611962565b60026001540361185b5760405162461bcd60e51b815260206004820152601f60248201527f5265656e7472616e637947756172643a207265656e7472616e742063616c6c0060448201526064016104a3565b6002600155565b6040516001600160a01b03808516602483015283166044820152606481018290526118cd9085906323b872dd60e01b906084015b60408051601f198184030181529190526020810180516001600160e01b03166001600160e01b0319909316929092179091526119b2565b50505050565b6040516001600160a01b03831660248201526044810182905261190390849063a9059cbb60e01b90606401611896565b505050565b6000546001600160a01b031633146108c55760405162461bcd60e51b815260206004820181905260248201527f4f776e61626c653a2063616c6c6572206973206e6f7420746865206f776e657260448201526064016104a3565b600080546001600160a01b038381166001600160a01b0319831681178455604051919092169283917f8be0079c531659141344cd1fd0a4f28419497f9722a3daafe3b4186f6b6457e09190a35050565b6000611a07826040518060400160405280602081526020017f5361666545524332303a206c6f772d6c6576656c2063616c6c206661696c6564815250856001600160a01b0316611a879092919063ffffffff16565b9050805160001480611a28575080806020019051810190611a289190611d80565b6119035760405162461bcd60e51b815260206004820152602a60248201527f5361666545524332303a204552433230206f7065726174696f6e20646964206e6044820152691bdd081cdd58d8d9595960b21b60648201526084016104a3565b6060611a968484600085611a9e565b949350505050565b606082471015611aff5760405162461bcd60e51b815260206004820152602660248201527f416464726573733a20696e73756666696369656e742062616c616e636520666f6044820152651c8818d85b1b60d21b60648201526084016104a3565b600080866001600160a01b03168587604051611b1b9190611dc6565b60006040518083038185875af1925050503d8060008114611b58576040519150601f19603f3d011682016040523d82523d6000602084013e611b5d565b606091505b5091509150611b6e87838387611b79565b979650505050505050565b60608315611be8578251600003611be1576001600160a01b0385163b611be15760405162461bcd60e51b815260206004820152601d60248201527f416464726573733a2063616c6c20746f206e6f6e2d636f6e747261637400000060448201526064016104a3565b5081611a96565b611a968383815115611bfd5781518083602001fd5b8060405162461bcd60e51b81526004016104a39190611de2565b600060208284031215611c2957600080fd5b5035919050565b600060208284031215611c4257600080fd5b81356001600160a01b0381168114611c5957600080fd5b9392505050565b634e487b7160e01b600052602160045260246000fd5b6020810160058310611c9857634e487b7160e01b600052602160045260246000fd5b91905290565b600080600060608486031215611cb357600080fd5b505081359360208301359350604090920135919050565b600080600080600060a08688031215611ce257600080fd5b505083359560208501359550604085013594606081013594506080013592509050565b634e487b7160e01b600052601160045260246000fd5b8082018082111561141257611412611d05565b808202811582820484141761141257611412611d05565b600082611d6257634e487b7160e01b600052601260045260246000fd5b500490565b600060208284031215611d7957600080fd5b5051919050565b600060208284031215611d9257600080fd5b81518015158114611c5957600080fd5b60005b83811015611dbd578181015183820152602001611da5565b50506000910152565b60008251611dd8818460208701611da2565b9190910192915050565b6020815260008251806020840152611e01816040850160208701611da2565b601f01601f1916919091016040019291505056fea2646970667358221220ad28bc74c78cbeb144d861012f48eb5176cfbe658631e427120f179daef5f27364736f6c63430008130033",
  "linkReferences": {},
  "deployedLinkReferences": {}
}